{
  "contractName": "DutchAuction",
  "abi": [
    {
      "inputs": [
        {
          "internalType": "contract MyToken",
          "name": "_tokenContract",
          "type": "address"
        },
        {
          "internalType": "uint256",
          "name": "_tokenPrice",
          "type": "uint256"
        },
        {
          "internalType": "uint256",
          "name": "_priceReductionRate",
          "type": "uint256"
        }
      ],
      "stateMutability": "nonpayable",
      "type": "constructor"
    },
    {
      "anonymous": false,
      "inputs": [
        {
          "indexed": true,
          "internalType": "address",
          "name": "buyer",
          "type": "address"
        },
        {
          "indexed": false,
          "internalType": "uint256",
          "name": "_amount",
          "type": "uint256"
        }
      ],
      "name": "Sell",
      "type": "event"
    },
    {
      "inputs": [],
      "name": "expiresAt",
      "outputs": [
        {
          "internalType": "uint256",
          "name": "",
          "type": "uint256"
        }
      ],
      "stateMutability": "view",
      "type": "function",
      "constant": true
    },
    {
      "inputs": [],
      "name": "owner",
      "outputs": [
        {
          "internalType": "address",
          "name": "",
          "type": "address"
        }
      ],
      "stateMutability": "view",
      "type": "function",
      "constant": true
    },
    {
      "inputs": [],
      "name": "priceDeductionRate",
      "outputs": [
        {
          "internalType": "uint256",
          "name": "",
          "type": "uint256"
        }
      ],
      "stateMutability": "view",
      "type": "function",
      "constant": true
    },
    {
      "inputs": [],
      "name": "stage",
      "outputs": [
        {
          "internalType": "enum DutchAuction.Stage",
          "name": "",
          "type": "uint8"
        }
      ],
      "stateMutability": "view",
      "type": "function",
      "constant": true
    },
    {
      "inputs": [],
      "name": "startAt",
      "outputs": [
        {
          "internalType": "uint256",
          "name": "",
          "type": "uint256"
        }
      ],
      "stateMutability": "view",
      "type": "function",
      "constant": true
    },
    {
      "inputs": [],
      "name": "tokenContract",
      "outputs": [
        {
          "internalType": "contract MyToken",
          "name": "",
          "type": "address"
        }
      ],
      "stateMutability": "view",
      "type": "function",
      "constant": true
    },
    {
      "inputs": [],
      "name": "tokenPrice",
      "outputs": [
        {
          "internalType": "uint256",
          "name": "",
          "type": "uint256"
        }
      ],
      "stateMutability": "view",
      "type": "function",
      "constant": true
    },
    {
      "inputs": [],
      "name": "tokensSold",
      "outputs": [
        {
          "internalType": "uint256",
          "name": "",
          "type": "uint256"
        }
      ],
      "stateMutability": "view",
      "type": "function",
      "constant": true
    },
    {
      "inputs": [
        {
          "internalType": "uint256",
          "name": "_numberOfTokens",
          "type": "uint256"
        }
      ],
      "name": "buy",
      "outputs": [],
      "stateMutability": "payable",
      "type": "function",
      "payable": true
    },
    {
      "inputs": [],
      "name": "getCurrentPrice",
      "outputs": [
        {
          "internalType": "uint256",
          "name": "",
          "type": "uint256"
        }
      ],
      "stateMutability": "view",
      "type": "function",
      "constant": true
    },
    {
      "inputs": [],
      "name": "endAuction",
      "outputs": [],
      "stateMutability": "payable",
      "type": "function",
      "payable": true
    }
  ],
  "bytecode": "0x60806040523480156200001157600080fd5b506040516200111e3803806200111e83398181016040528101906200003791906200016d565b336000806101000a81548173ffffffffffffffffffffffffffffffffffffffff021916908373ffffffffffffffffffffffffffffffffffffffff16021790555082600160006101000a81548173ffffffffffffffffffffffffffffffffffffffff021916908373ffffffffffffffffffffffffffffffffffffffff160217905550816002819055504260048190555062278d0042620000d79190620001c3565b600681905550806005819055506000600760006101000a81548160ff0219169083600181111562000131577f4e487b7100000000000000000000000000000000000000000000000000000000600052602160045260246000fd5b0217905550505050620002d5565b6000815190506200015081620002a1565b92915050565b6000815190506200016781620002bb565b92915050565b6000806000606084860312156200018357600080fd5b600062000193868287016200013f565b9350506020620001a68682870162000156565b9250506040620001b98682870162000156565b9150509250925092565b6000620001d08262000268565b9150620001dd8362000268565b9250827fffffffffffffffffffffffffffffffffffffffffffffffffffffffffffffffff0382111562000215576200021462000272565b5b828201905092915050565b60006200022d8262000248565b9050919050565b6000620002418262000220565b9050919050565b600073ffffffffffffffffffffffffffffffffffffffff82169050919050565b6000819050919050565b7f4e487b7100000000000000000000000000000000000000000000000000000000600052601160045260246000fd5b620002ac8162000234565b8114620002b857600080fd5b50565b620002c68162000268565b8114620002d257600080fd5b50565b610e3980620002e56000396000f3fe60806040526004361061009c5760003560e01c8063c040e6b811610064578063c040e6b814610178578063c7446565146101a3578063d96a094a146101ce578063df16744c146101ea578063eb91d37e14610215578063fe67a54b146102405761009c565b8063518ab2a8146100a157806355a373d6146100cc5780637ff9b596146100f75780638622a689146101225780638da5cb5b1461014d575b600080fd5b3480156100ad57600080fd5b506100b661024a565b6040516100c39190610b62565b60405180910390f35b3480156100d857600080fd5b506100e1610250565b6040516100ee9190610aec565b60405180910390f35b34801561010357600080fd5b5061010c610276565b6040516101199190610b62565b60405180910390f35b34801561012e57600080fd5b5061013761027c565b6040516101449190610b62565b60405180910390f35b34801561015957600080fd5b50610162610282565b60405161016f9190610aa8565b60405180910390f35b34801561018457600080fd5b5061018d6102a6565b60405161019a9190610b07565b60405180910390f35b3480156101af57600080fd5b506101b86102b9565b6040516101c59190610b62565b60405180910390f35b6101e860048036038101906101e3919061099a565b6102bf565b005b3480156101f657600080fd5b506101ff61057c565b60405161020c9190610b62565b60405180910390f35b34801561022157600080fd5b5061022a610582565b6040516102379190610b62565b60405180910390f35b6102486105d6565b005b60035481565b600160009054906101000a900473ffffffffffffffffffffffffffffffffffffffff1681565b60025481565b60065481565b60008054906101000a900473ffffffffffffffffffffffffffffffffffffffff1681565b600760009054906101000a900460ff1681565b60045481565b600060018111156102f9577f4e487b7100000000000000000000000000000000000000000000000000000000600052602160045260246000fd5b600760009054906101000a900460ff166001811115610341577f4e487b7100000000000000000000000000000000000000000000000000000000600052602160045260246000fd5b14610381576040517f08c379a000000000000000000000000000000000000000000000000000000000815260040161037890610b42565b60405180910390fd5b600061038b610582565b905061039782826108fb565b34146103a257600080fd5b81600160009054906101000a900473ffffffffffffffffffffffffffffffffffffffff1673ffffffffffffffffffffffffffffffffffffffff166370a08231306040518263ffffffff1660e01b81526004016103fe9190610aa8565b60206040518083038186803b15801561041657600080fd5b505afa15801561042a573d6000803e3d6000fd5b505050506040513d601f19601f8201168201806040525081019061044e91906109c3565b101561045957600080fd5b600160009054906101000a900473ffffffffffffffffffffffffffffffffffffffff1673ffffffffffffffffffffffffffffffffffffffff1663a9059cbb33846040518363ffffffff1660e01b81526004016104b6929190610ac3565b602060405180830381600087803b1580156104d057600080fd5b505af11580156104e4573d6000803e3d6000fd5b505050506040513d601f19601f820116820180604052508101906105089190610971565b61051157600080fd5b81600360008282546105239190610b8e565b925050819055503373ffffffffffffffffffffffffffffffffffffffff167f5e5e995ce3133561afceaa51a9a154d5db228cd7525d34df5185582c18d3df09836040516105709190610b62565b60405180910390a25050565b60055481565b600080600454426105939190610c6f565b9050600062015180826105a69190610be4565b90506000816005546105b89190610c15565b90506000816002546105ca9190610c6f565b90508094505050505090565b60006001811115610610577f4e487b7100000000000000000000000000000000000000000000000000000000600052602160045260246000fd5b600760009054906101000a900460ff166001811115610658577f4e487b7100000000000000000000000000000000000000000000000000000000600052602160045260246000fd5b14610698576040517f08c379a000000000000000000000000000000000000000000000000000000000815260040161068f90610b42565b60405180910390fd5b60008054906101000a900473ffffffffffffffffffffffffffffffffffffffff1673ffffffffffffffffffffffffffffffffffffffff163373ffffffffffffffffffffffffffffffffffffffff1614610726576040517f08c379a000000000000000000000000000000000000000000000000000000000815260040161071d90610b22565b60405180910390fd5b6001600760006101000a81548160ff02191690836001811115610772577f4e487b7100000000000000000000000000000000000000000000000000000000600052602160045260246000fd5b0217905550600160009054906101000a900473ffffffffffffffffffffffffffffffffffffffff1673ffffffffffffffffffffffffffffffffffffffff1663a9059cbb60008054906101000a900473ffffffffffffffffffffffffffffffffffffffff16600160009054906101000a900473ffffffffffffffffffffffffffffffffffffffff1673ffffffffffffffffffffffffffffffffffffffff166370a08231306040518263ffffffff1660e01b81526004016108319190610aa8565b60206040518083038186803b15801561084957600080fd5b505afa15801561085d573d6000803e3d6000fd5b505050506040513d601f19601f8201168201806040525081019061088191906109c3565b6040518363ffffffff1660e01b815260040161089e929190610ac3565b602060405180830381600087803b1580156108b857600080fd5b505af11580156108cc573d6000803e3d6000fd5b505050506040513d601f19601f820116820180604052508101906108f09190610971565b6108f957600080fd5b565b6000808214806109235750828283856109149190610c15565b9250826109219190610be4565b145b61092c57600080fd5b92915050565b60008151905061094181610dd5565b92915050565b60008135905061095681610dec565b92915050565b60008151905061096b81610dec565b92915050565b60006020828403121561098357600080fd5b600061099184828501610932565b91505092915050565b6000602082840312156109ac57600080fd5b60006109ba84828501610947565b91505092915050565b6000602082840312156109d557600080fd5b60006109e38482850161095c565b91505092915050565b6109f581610ca3565b82525050565b610a0481610cfe565b82525050565b610a1381610d22565b82525050565b6000610a26601683610b7d565b91507f4f6e6c79206f776e65722063616e20646f2074686973000000000000000000006000830152602082019050919050565b6000610a66600d83610b7d565b91507f41756374696f6e20656e646564000000000000000000000000000000000000006000830152602082019050919050565b610aa281610cf4565b82525050565b6000602082019050610abd60008301846109ec565b92915050565b6000604082019050610ad860008301856109ec565b610ae56020830184610a99565b9392505050565b6000602082019050610b0160008301846109fb565b92915050565b6000602082019050610b1c6000830184610a0a565b92915050565b60006020820190508181036000830152610b3b81610a19565b9050919050565b60006020820190508181036000830152610b5b81610a59565b9050919050565b6000602082019050610b776000830184610a99565b92915050565b600082825260208201905092915050565b6000610b9982610cf4565b9150610ba483610cf4565b9250827fffffffffffffffffffffffffffffffffffffffffffffffffffffffffffffffff03821115610bd957610bd8610d34565b5b828201905092915050565b6000610bef82610cf4565b9150610bfa83610cf4565b925082610c0a57610c09610d63565b5b828204905092915050565b6000610c2082610cf4565b9150610c2b83610cf4565b9250817fffffffffffffffffffffffffffffffffffffffffffffffffffffffffffffffff0483118215151615610c6457610c63610d34565b5b828202905092915050565b6000610c7a82610cf4565b9150610c8583610cf4565b925082821015610c9857610c97610d34565b5b828203905092915050565b6000610cae82610cd4565b9050919050565b60008115159050919050565b6000819050610ccf82610dc1565b919050565b600073ffffffffffffffffffffffffffffffffffffffff82169050919050565b6000819050919050565b6000610d0982610d10565b9050919050565b6000610d1b82610cd4565b9050919050565b6000610d2d82610cc1565b9050919050565b7f4e487b7100000000000000000000000000000000000000000000000000000000600052601160045260246000fd5b7f4e487b7100000000000000000000000000000000000000000000000000000000600052601260045260246000fd5b7f4e487b7100000000000000000000000000000000000000000000000000000000600052602160045260246000fd5b60028110610dd257610dd1610d92565b5b50565b610dde81610cb5565b8114610de957600080fd5b50565b610df581610cf4565b8114610e0057600080fd5b5056fea26469706673582212209a21acb7db41e1a7a4d7b68cca424e77bfd9573f1098ce2b5ec6221e03afa75d64736f6c63430008000033",
  "immutableReferences": {},
  "source": "pragma solidity >=0.7.0;\n// SPDX-License-Identifier: MIT\nimport \"./MyToken.sol\";\n\ncontract DutchAuction {\n    // event for buy order\n    event Sell(address indexed buyer, uint _amount);\n    address public owner;\n    MyToken public tokenContract;\n    uint public tokenPrice; \n    uint public tokensSold;\n    uint public startAt;\n    uint public priceDeductionRate;\n    uint public expiresAt;\n    Stage public stage;\n    enum Stage {\n        AuctionDeployed,\n        AuctionEnded\n    }\n\n// MyToken _tokenContract, uint _startingPrice, uint _priceReductionRate\n    constructor(MyToken _tokenContract, uint _tokenPrice, uint _priceReductionRate){\n        // if (_startingPrice == 0 || _priceReductionRate == 0) {\n        //     revert(\"Arguments can't be null\");\n        // }\n        owner = msg.sender;\n        tokenContract = _tokenContract;\n        tokenPrice = _tokenPrice;\n        startAt = block.timestamp;\n        expiresAt = block.timestamp +  30 days;\n        priceDeductionRate = _priceReductionRate;\n        stage = Stage.AuctionDeployed;\n    }\n    modifier isOwner() {\n        if (msg.sender != owner)\n            // Only owner is allowed to proceed\n            revert(\"Only owner can do this\");\n        _;\n    }\n    modifier auctionOn() {\n        if (stage != Stage.AuctionDeployed)\n            revert(\"Auction ended\");\n        _;\n    }\n    function multiply(uint x, uint y) internal pure returns (uint z) {\n        require(y==0 || (z = x*y) / y==x);\n    }\n    function buy(uint _numberOfTokens) public payable auctionOn {\n        uint currentPrice = getCurrentPrice();\n        require(msg.value == multiply(_numberOfTokens, currentPrice));\n        require(tokenContract.balanceOf(address(this)) >= _numberOfTokens);\n        require(tokenContract.transfer(msg.sender, _numberOfTokens));\n        tokensSold += _numberOfTokens;\n        Sell(msg.sender, _numberOfTokens);\n    }\n    function getCurrentPrice() public view returns(uint) {\n        uint timeElapsed = block.timestamp - startAt;\n        uint daysPassed = uint(timeElapsed) / 1 days;\n        uint deduction = priceDeductionRate * daysPassed;\n        uint price = tokenPrice - deduction;\n        return price;\n    }\n    function endAuction() public payable auctionOn isOwner {\n        stage = Stage.AuctionEnded;\n        require(tokenContract.transfer(owner, tokenContract.balanceOf(address(this))));\n        // tokenContract.transfer(owner, tokenContract.balanceOf(address(this)));\n        \n        // tokenContract.transfer(owner, 1000000 - tokensSold);\n    }\n\n}",
  "sourcePath": "/Users/hamzaahmed/Desktop/blockchainDev/DutchAuction/contracts/DutchAuction.sol",
  "compiler": {
    "name": "solc",
    "version": "0.8.0+commit.c7dfd78e.Emscripten.clang"
  },
  "schemaVersion": "3.4.4",
  "updatedAt": "2022-01-17T01:11:53.220Z",
  "networkType": "ethereum",
  "devdoc": {
    "kind": "dev",
    "methods": {},
    "version": 1
  },
  "userdoc": {
    "kind": "user",
    "methods": {},
    "version": 1
  }
}